{
  "_format": "hh-sol-artifact-1",
  "contractName": "BankAccount",
  "sourceName": "contracts/BankAccount.sol",
  "abi": [
    {
      "anonymous": false,
      "inputs": [
        {
          "indexed": false,
          "internalType": "address[]",
          "name": "owners",
          "type": "address[]"
        },
        {
          "indexed": true,
          "internalType": "uint256",
          "name": "id",
          "type": "uint256"
        },
        {
          "indexed": false,
          "internalType": "uint256",
          "name": "timestamp",
          "type": "uint256"
        }
      ],
      "name": "AccountCreated",
      "type": "event"
    },
    {
      "anonymous": false,
      "inputs": [
        {
          "indexed": true,
          "internalType": "address",
          "name": "user",
          "type": "address"
        },
        {
          "indexed": true,
          "internalType": "uint256",
          "name": "accountId",
          "type": "uint256"
        },
        {
          "indexed": false,
          "internalType": "uint256",
          "name": "value",
          "type": "uint256"
        },
        {
          "indexed": false,
          "internalType": "uint256",
          "name": "timestamp",
          "type": "uint256"
        }
      ],
      "name": "Deposit",
      "type": "event"
    },
    {
      "anonymous": false,
      "inputs": [
        {
          "indexed": true,
          "internalType": "uint256",
          "name": "withdrawId",
          "type": "uint256"
        },
        {
          "indexed": false,
          "internalType": "uint256",
          "name": "timestamp",
          "type": "uint256"
        }
      ],
      "name": "Withdraw",
      "type": "event"
    },
    {
      "anonymous": false,
      "inputs": [
        {
          "indexed": true,
          "internalType": "address",
          "name": "user",
          "type": "address"
        },
        {
          "indexed": true,
          "internalType": "uint256",
          "name": "accountId",
          "type": "uint256"
        },
        {
          "indexed": true,
          "internalType": "uint256",
          "name": "withdrawId",
          "type": "uint256"
        },
        {
          "indexed": false,
          "internalType": "uint256",
          "name": "amount",
          "type": "uint256"
        },
        {
          "indexed": false,
          "internalType": "uint256",
          "name": "timestamp",
          "type": "uint256"
        }
      ],
      "name": "WithdrawRequested",
      "type": "event"
    },
    {
      "inputs": [
        {
          "internalType": "uint256",
          "name": "accountId",
          "type": "uint256"
        },
        {
          "internalType": "uint256",
          "name": "withdrawId",
          "type": "uint256"
        }
      ],
      "name": "approveWithdrawl",
      "outputs": [],
      "stateMutability": "nonpayable",
      "type": "function"
    },
    {
      "inputs": [
        {
          "internalType": "address[]",
          "name": "otherOwners",
          "type": "address[]"
        }
      ],
      "name": "createAccount",
      "outputs": [],
      "stateMutability": "nonpayable",
      "type": "function"
    },
    {
      "inputs": [
        {
          "internalType": "uint256",
          "name": "accountId",
          "type": "uint256"
        }
      ],
      "name": "deposit",
      "outputs": [],
      "stateMutability": "payable",
      "type": "function"
    },
    {
      "inputs": [],
      "name": "getAccounts",
      "outputs": [
        {
          "internalType": "uint256[]",
          "name": "",
          "type": "uint256[]"
        }
      ],
      "stateMutability": "view",
      "type": "function"
    },
    {
      "inputs": [
        {
          "internalType": "uint256",
          "name": "accountId",
          "type": "uint256"
        },
        {
          "internalType": "uint256",
          "name": "withdrawId",
          "type": "uint256"
        }
      ],
      "name": "getApprovals",
      "outputs": [
        {
          "internalType": "uint256",
          "name": "",
          "type": "uint256"
        }
      ],
      "stateMutability": "view",
      "type": "function"
    },
    {
      "inputs": [
        {
          "internalType": "uint256",
          "name": "accountId",
          "type": "uint256"
        }
      ],
      "name": "getBalance",
      "outputs": [
        {
          "internalType": "uint256",
          "name": "",
          "type": "uint256"
        }
      ],
      "stateMutability": "view",
      "type": "function"
    },
    {
      "inputs": [
        {
          "internalType": "uint256",
          "name": "accountId",
          "type": "uint256"
        }
      ],
      "name": "getOwners",
      "outputs": [
        {
          "internalType": "address[]",
          "name": "",
          "type": "address[]"
        }
      ],
      "stateMutability": "view",
      "type": "function"
    },
    {
      "inputs": [
        {
          "internalType": "uint256",
          "name": "accountId",
          "type": "uint256"
        },
        {
          "internalType": "uint256",
          "name": "amount",
          "type": "uint256"
        }
      ],
      "name": "requestWithdrawl",
      "outputs": [],
      "stateMutability": "nonpayable",
      "type": "function"
    },
    {
      "inputs": [
        {
          "internalType": "uint256",
          "name": "accountId",
          "type": "uint256"
        },
        {
          "internalType": "uint256",
          "name": "withdrawId",
          "type": "uint256"
        }
      ],
      "name": "withdraw",
      "outputs": [],
      "stateMutability": "nonpayable",
      "type": "function"
    }
  ],
  "bytecode": "0x608060405234801561001057600080fd5b50612072806100206000396000f3fe6080604052600436106100865760003560e01c80638a48ac03116100595780638a48ac0314610157578063a52a6f9a14610182578063b6b55f25146101ab578063ee4525d5146101c7578063eff634331461020457610086565b80631e0104391461008b578063441a3e70146100c8578063785e5531146100f1578063867275a51461011a575b600080fd5b34801561009757600080fd5b506100b260048036038101906100ad91906114ed565b61022d565b6040516100bf9190611529565b60405180910390f35b3480156100d457600080fd5b506100ef60048036038101906100ea9190611544565b61024c565b005b3480156100fd57600080fd5b5061011860048036038101906101139190611544565b610580565b005b34801561012657600080fd5b50610141600480360381019061013c9190611544565b610a16565b60405161014e9190611529565b60405180910390f35b34801561016357600080fd5b5061016c610a4a565b6040516101799190611642565b60405180910390f35b34801561018e57600080fd5b506101a960048036038101906101a49190611544565b610adf565b005b6101c560048036038101906101c091906114ed565b610d30565b005b3480156101d357600080fd5b506101ee60048036038101906101e991906114ed565b610e67565b6040516101fb9190611754565b60405180910390f35b34801561021057600080fd5b5061022b600480360381019061022691906117db565b610f0a565b005b6000806000838152602001908152602001600020600101549050919050565b81813373ffffffffffffffffffffffffffffffffffffffff16600080848152602001908152602001600020600201600083815260200190815260200160002060000160009054906101000a900473ffffffffffffffffffffffffffffffffffffffff1673ffffffffffffffffffffffffffffffffffffffff1614610305576040517f08c379a00000000000000000000000000000000000000000000000000000000081526004016102fc90611885565b60405180910390fd5b600080838152602001908152602001600020600201600082815260200190815260200160002060040160009054906101000a900460ff1661037b576040517f08c379a000000000000000000000000000000000000000000000000000000000815260040161037290611917565b60405180910390fd5b60008060008681526020019081526020016000206002016000858152602001908152602001600020600101549050806103b38661022d565b10156103f4576040517f08c379a00000000000000000000000000000000000000000000000000000000081526004016103eb90611983565b60405180910390fd5b80600080878152602001908152602001600020600101600082825461041991906119d2565b925050819055506000808681526020019081526020016000206002016000858152602001908152602001600020600080820160006101000a81549073ffffffffffffffffffffffffffffffffffffffff0219169055600182016000905560028201600090556004820160006101000a81549060ff0219169055505060003373ffffffffffffffffffffffffffffffffffffffff16826040516104ba90611a37565b60006040518083038185875af1925050503d80600081146104f7576040519150601f19603f3d011682016040523d82523d6000602084013e6104fc565b606091505b5050905080610540576040517f08c379a000000000000000000000000000000000000000000000000000000000815260040161053790611a98565b60405180910390fd5b847f56ca301a9219608c91e7bcee90e083c19671d2cdcc96752c7af291cee5f9c8c8426040516105709190611529565b60405180910390a2505050505050565b816000805b60008084815260200190815260200160002060000180549050811015610645573373ffffffffffffffffffffffffffffffffffffffff1660008085815260200190815260200160002060000182815481106105e3576105e2611ab8565b5b9060005260206000200160009054906101000a900473ffffffffffffffffffffffffffffffffffffffff1673ffffffffffffffffffffffffffffffffffffffff16036106325760019150610645565b808061063d90611ae7565b915050610585565b5080610686576040517f08c379a000000000000000000000000000000000000000000000000000000000815260040161067d90611b7b565b60405180910390fd5b8383600080838152602001908152602001600020600201600082815260200190815260200160002060040160009054906101000a900460ff16156106ff576040517f08c379a00000000000000000000000000000000000000000000000000000000081526004016106f690611c0d565b60405180910390fd5b3373ffffffffffffffffffffffffffffffffffffffff16600080848152602001908152602001600020600201600083815260200190815260200160002060000160009054906101000a900473ffffffffffffffffffffffffffffffffffffffff1673ffffffffffffffffffffffffffffffffffffffff16036107b6576040517f08c379a00000000000000000000000000000000000000000000000000000000081526004016107ad90611c9f565b60405180910390fd5b600073ffffffffffffffffffffffffffffffffffffffff16600080848152602001908152602001600020600201600083815260200190815260200160002060000160009054906101000a900473ffffffffffffffffffffffffffffffffffffffff1673ffffffffffffffffffffffffffffffffffffffff160361086e576040517f08c379a000000000000000000000000000000000000000000000000000000000815260040161086590611d0b565b60405180910390fd5b600080838152602001908152602001600020600201600082815260200190815260200160002060030160003373ffffffffffffffffffffffffffffffffffffffff1673ffffffffffffffffffffffffffffffffffffffff16815260200190815260200160002060009054906101000a900460ff1615610922576040517f08c379a000000000000000000000000000000000000000000000000000000000815260040161091990611d9d565b60405180910390fd5b60008060008881526020019081526020016000206002016000878152602001908152602001600020905080600201600081548092919061096190611ae7565b919050555060018160030160003373ffffffffffffffffffffffffffffffffffffffff1673ffffffffffffffffffffffffffffffffffffffff16815260200190815260200160002060006101000a81548160ff0219169083151502179055506001600080898152602001908152602001600020600001805490506109e591906119d2565b816002015403610a0d5760018160040160006101000a81548160ff0219169083151502179055505b50505050505050565b6000806000848152602001908152602001600020600201600083815260200190815260200160002060020154905092915050565b6060600160003373ffffffffffffffffffffffffffffffffffffffff1673ffffffffffffffffffffffffffffffffffffffff168152602001908152602001600020805480602002602001604051908101604052809291908181526020018280548015610ad557602002820191906000526020600020905b815481526020019060010190808311610ac1575b5050505050905090565b816000805b60008084815260200190815260200160002060000180549050811015610ba4573373ffffffffffffffffffffffffffffffffffffffff166000808581526020019081526020016000206000018281548110610b4257610b41611ab8565b5b9060005260206000200160009054906101000a900473ffffffffffffffffffffffffffffffffffffffff1673ffffffffffffffffffffffffffffffffffffffff1603610b915760019150610ba4565b8080610b9c90611ae7565b915050610ae4565b5080610be5576040517f08c379a0000000000000000000000000000000000000000000000000000000008152600401610bdc90611b7b565b60405180910390fd5b838380600080848152602001908152602001600020600101541015610c3f576040517f08c379a0000000000000000000000000000000000000000000000000000000008152600401610c3690611983565b60405180910390fd5b60006003549050600080600089815260200190815260200160002060020160008381526020019081526020016000209050338160000160006101000a81548173ffffffffffffffffffffffffffffffffffffffff021916908373ffffffffffffffffffffffffffffffffffffffff16021790555086816001018190555060036000815480929190610ccf90611ae7565b919050555081883373ffffffffffffffffffffffffffffffffffffffff167f1f0d204a59639d21245dbaa239dfc9a6227aa86cb614bdda19843c52d155fcfa8a42604051610d1e929190611dbd565b60405180910390a45050505050505050565b806000805b60008084815260200190815260200160002060000180549050811015610df5573373ffffffffffffffffffffffffffffffffffffffff166000808581526020019081526020016000206000018281548110610d9357610d92611ab8565b5b9060005260206000200160009054906101000a900473ffffffffffffffffffffffffffffffffffffffff1673ffffffffffffffffffffffffffffffffffffffff1603610de25760019150610df5565b8080610ded90611ae7565b915050610d35565b5080610e36576040517f08c379a0000000000000000000000000000000000000000000000000000000008152600401610e2d90611b7b565b60405180910390fd5b346000808581526020019081526020016000206001016000828254610e5b9190611de6565b92505081905550505050565b6060600080838152602001908152602001600020600001805480602002602001604051908101604052809291908181526020018280548015610efe57602002820191906000526020600020905b8160009054906101000a900473ffffffffffffffffffffffffffffffffffffffff1673ffffffffffffffffffffffffffffffffffffffff1681526020019060010190808311610eb4575b50505050509050919050565b81816004600183839050610f1e9190611de6565b1115610f5f576040517f08c379a0000000000000000000000000000000000000000000000000000000008152600401610f5690611e66565b60405180910390fd5b60005b82829050811015611102573373ffffffffffffffffffffffffffffffffffffffff16838383818110610f9757610f96611ab8565b5b9050602002016020810190610fac9190611eb2565b73ffffffffffffffffffffffffffffffffffffffff1603611002576040517f08c379a0000000000000000000000000000000000000000000000000000000008152600401610ff990611f2b565b60405180910390fd5b60006001826110119190611de6565b90505b838390508110156110ee5783838281811061103257611031611ab8565b5b90506020020160208101906110479190611eb2565b73ffffffffffffffffffffffffffffffffffffffff168484848181106110705761106f611ab8565b5b90506020020160208101906110859190611eb2565b73ffffffffffffffffffffffffffffffffffffffff16036110db576040517f08c379a00000000000000000000000000000000000000000000000000000000081526004016110d290611f2b565b60405180910390fd5b80806110e690611ae7565b915050611014565b5080806110fa90611ae7565b915050610f62565b5060006001858590506111159190611de6565b67ffffffffffffffff81111561112e5761112d611f4b565b5b60405190808252806020026020018201604052801561115c5781602001602082028036833780820191505090505b5090503381868690508151811061117657611175611ab8565b5b602002602001019073ffffffffffffffffffffffffffffffffffffffff16908173ffffffffffffffffffffffffffffffffffffffff16815250506000600254905060005b825181101561138157600183516111d191906119d2565b81101561124e578686828181106111eb576111ea611ab8565b5b90506020020160208101906112009190611eb2565b83828151811061121357611212611ab8565b5b602002602001019073ffffffffffffffffffffffffffffffffffffffff16908173ffffffffffffffffffffffffffffffffffffffff16815250505b60026001600085848151811061126757611266611ab8565b5b602002602001015173ffffffffffffffffffffffffffffffffffffffff1673ffffffffffffffffffffffffffffffffffffffff1681526020019081526020016000208054905011156112ee576040517f08c379a00000000000000000000000000000000000000000000000000000000081526004016112e590611fec565b60405180910390fd5b6001600084838151811061130557611304611ab8565b5b602002602001015173ffffffffffffffffffffffffffffffffffffffff1673ffffffffffffffffffffffffffffffffffffffff168152602001908152602001600020829080600181540180825580915050600190039060005260206000200160009091909190915055808061137990611ae7565b9150506111ba565b508160008083815260200190815260200160002060000190805190602001906113ab929190611406565b50600260008154809291906113bf90611ae7565b9190505550807f1dfea57c7217d8ee2ef44253419f3a05acdf0e6dea69f12e9e2afa2e748e3c8c83426040516113f692919061200c565b60405180910390a2505050505050565b82805482825590600052602060002090810192821561147f579160200282015b8281111561147e5782518260006101000a81548173ffffffffffffffffffffffffffffffffffffffff021916908373ffffffffffffffffffffffffffffffffffffffff16021790555091602001919060010190611426565b5b50905061148c9190611490565b5090565b5b808211156114a9576000816000905550600101611491565b5090565b600080fd5b600080fd5b6000819050919050565b6114ca816114b7565b81146114d557600080fd5b50565b6000813590506114e7816114c1565b92915050565b600060208284031215611503576115026114ad565b5b6000611511848285016114d8565b91505092915050565b611523816114b7565b82525050565b600060208201905061153e600083018461151a565b92915050565b6000806040838503121561155b5761155a6114ad565b5b6000611569858286016114d8565b925050602061157a858286016114d8565b9150509250929050565b600081519050919050565b600082825260208201905092915050565b6000819050602082019050919050565b6115b9816114b7565b82525050565b60006115cb83836115b0565b60208301905092915050565b6000602082019050919050565b60006115ef82611584565b6115f9818561158f565b9350611604836115a0565b8060005b8381101561163557815161161c88826115bf565b9750611627836115d7565b925050600181019050611608565b5085935050505092915050565b6000602082019050818103600083015261165c81846115e4565b905092915050565b600081519050919050565b600082825260208201905092915050565b6000819050602082019050919050565b600073ffffffffffffffffffffffffffffffffffffffff82169050919050565b60006116bb82611690565b9050919050565b6116cb816116b0565b82525050565b60006116dd83836116c2565b60208301905092915050565b6000602082019050919050565b600061170182611664565b61170b818561166f565b935061171683611680565b8060005b8381101561174757815161172e88826116d1565b9750611739836116e9565b92505060018101905061171a565b5085935050505092915050565b6000602082019050818103600083015261176e81846116f6565b905092915050565b600080fd5b600080fd5b600080fd5b60008083601f84011261179b5761179a611776565b5b8235905067ffffffffffffffff8111156117b8576117b761177b565b5b6020830191508360208202830111156117d4576117d3611780565b5b9250929050565b600080602083850312156117f2576117f16114ad565b5b600083013567ffffffffffffffff8111156118105761180f6114b2565b5b61181c85828601611785565b92509250509250929050565b600082825260208201905092915050565b7f596f7520646964206e6f74206372656174652074686973207265717565737400600082015250565b600061186f601f83611828565b915061187a82611839565b602082019050919050565b6000602082019050818103600083015261189e81611862565b9050919050565b7f54686973207265717565737420686173206e6f74206265656e20617070726f7660008201527f6564000000000000000000000000000000000000000000000000000000000000602082015250565b6000611901602283611828565b915061190c826118a5565b604082019050919050565b60006020820190508181036000830152611930816118f4565b9050919050565b7f496e73756666696369656e742062616c616e6365000000000000000000000000600082015250565b600061196d601483611828565b915061197882611937565b602082019050919050565b6000602082019050818103600083015261199c81611960565b9050919050565b7f4e487b7100000000000000000000000000000000000000000000000000000000600052601160045260246000fd5b60006119dd826114b7565b91506119e8836114b7565b9250828203905081811115611a00576119ff6119a3565b5b92915050565b600081905092915050565b50565b6000611a21600083611a06565b9150611a2c82611a11565b600082019050919050565b6000611a4282611a14565b9150819050919050565b7f4661696c656420746f2073656e64204554480000000000000000000000000000600082015250565b6000611a82601283611828565b9150611a8d82611a4c565b602082019050919050565b60006020820190508181036000830152611ab181611a75565b9050919050565b7f4e487b7100000000000000000000000000000000000000000000000000000000600052603260045260246000fd5b6000611af2826114b7565b91507fffffffffffffffffffffffffffffffffffffffffffffffffffffffffffffffff8203611b2457611b236119a3565b5b600182019050919050565b7f4e6f7420616e206f776e6572206f662074686973206163636f756e7400000000600082015250565b6000611b65601c83611828565b9150611b7082611b2f565b602082019050919050565b60006020820190508181036000830152611b9481611b58565b9050919050565b7f5468697320726571756573742068617320616c7265616479206265656e20617060008201527f70726f7665640000000000000000000000000000000000000000000000000000602082015250565b6000611bf7602683611828565b9150611c0282611b9b565b604082019050919050565b60006020820190508181036000830152611c2681611bea565b9050919050565b7f54686520757365722077686f206d61646520746865207265717565737420636160008201527f6e6e6f7420617070726f76652069740000000000000000000000000000000000602082015250565b6000611c89602f83611828565b9150611c9482611c2d565b604082019050919050565b60006020820190508181036000830152611cb881611c7c565b9050919050565b7f54686973207265717565737420646f6573206e6f742065786973740000000000600082015250565b6000611cf5601b83611828565b9150611d0082611cbf565b602082019050919050565b60006020820190508181036000830152611d2481611ce8565b9050919050565b7f596f75206861766520616c726561647920617070726f7665642074686973207260008201527f6571756573740000000000000000000000000000000000000000000000000000602082015250565b6000611d87602683611828565b9150611d9282611d2b565b604082019050919050565b60006020820190508181036000830152611db681611d7a565b9050919050565b6000604082019050611dd2600083018561151a565b611ddf602083018461151a565b9392505050565b6000611df1826114b7565b9150611dfc836114b7565b9250828201905080821115611e1457611e136119a3565b5b92915050565b7f4d6178696d756d206f662034206f776e65727320706572206163636f756e7400600082015250565b6000611e50601f83611828565b9150611e5b82611e1a565b602082019050919050565b60006020820190508181036000830152611e7f81611e43565b9050919050565b611e8f816116b0565b8114611e9a57600080fd5b50565b600081359050611eac81611e86565b92915050565b600060208284031215611ec857611ec76114ad565b5b6000611ed684828501611e9d565b91505092915050565b7f4e6f206475706c6963617465206f776e65727300000000000000000000000000600082015250565b6000611f15601383611828565b9150611f2082611edf565b602082019050919050565b60006020820190508181036000830152611f4481611f08565b9050919050565b7f4e487b7100000000000000000000000000000000000000000000000000000000600052604160045260246000fd5b7f4561636820757365722063616e20686176652061206d6178696d756d206f662060008201527f33206163636f756e747300000000000000000000000000000000000000000000602082015250565b6000611fd6602a83611828565b9150611fe182611f7a565b604082019050919050565b6000602082019050818103600083015261200581611fc9565b9050919050565b6000604082019050818103600083015261202681856116f6565b9050612035602083018461151a565b939250505056fea2646970667358221220a9832912daa30d63c1c6fba7e3becb910cbf7d59f978e4b968cccb249ca5cba664736f6c63430008130033",
  "linkReferences": {},
  "deployedLinkReferences": {}
}